:020000041000EA
:1000000000B5324B212058609868022188439860DF
:10001000D860186158612E4B002199600221596106
:100020000121F02299502B49196001219960352056
:1000300000F044F80222904214D00621196600F024
:1000400034F8196E01211966002018661A6600F04E
:100050002CF8196E196E196E052000F02FF8012189
:100060000842F9D1002199601B49196000215960AB
:100070001A491B48016001219960EB211966A021F2
:10008000196600F012F800219960164914480160C1
:100090000121996001BC002800D000471248134993
:1000A000086003C880F30888084703B5996A0420EC
:1000B0000142FBD001200142F8D103BD02B5186610
:1000C0001866FFF7F2FF186E186E02BD00000240BE
:1000D000000000180000070000035F00212200005C
:1000E000F4000018222000A00001001008ED00E03C
:1000F00000000000000000000000000074B24E7A12
:1001000000200420F7010010C3010010C5010010F9
:10011000C1010010C1010010C1010010C101001097
:10012000C1010010C1010010C1010010C701001081
:10013000C1010010C1010010C9010010CB01001065
:10014000CD010010CD010010CD010010CD01001037
:10015000CD010010CD010010CD010010CD01001027
:10016000CD010010CD010010CD010010CD01001017
:10017000CD010010CD010010CD010010CD01001007
:10018000CD010010CD010010CD010010CD010010F7
:10019000CD010010CD010010CD010010CD010010E7
:1001A000CD010010CD010010CD010010CD010010D7
:1001B000CD010010CD010010CD010010CD010010C7
:1001C00000BE00BE00BE00BE00BE00BEEFF3058054
:1001D000103800BEF2EB8871ECD7071010D807106A
:1001E0003402001090A31AE700201F49086006C8D7
:1001F00081F3088810471D48006800282FD10DA4FE
:100200000ECC002902D000F012F8F9E71849194A7B
:10021000002000E001C19142FCD1174988471749ED
:1002200088471749884700BEFDE701C901C29A42C5
:10023000FBD3704710D80710C00000201C2E0020F0
:100240008C05081000000420000004208C05081014
:10025000001004200010042000000000704709482E
:1002600005F0FEF90047000008ED00E0000000D0B6
:10027000402E00209C0B0120294300101511001076
:10028000E74200105756000006005250ABB36053CF
:10029000C0CB031006005250861C0302D0CB0310C3
:1002A000060052505422A29DE0CB0310050052508C
:1002B000DE65F4688C050810F8B5C04610B5064C2C
:1002C0002378002B07D1054B002B02D0044800E017
:1002D00000BF0123237010BDA82F002000000000E4
:1002E000B0B00310044B10B5002B03D003490448F1
:1002F00000E000BF10BDC04600000000AC2F002091
:10030000B0B0031010B505F0DBFD024905F0D1FDDA
:1003100010BDC0463333533A10B5104B1A688023D2
:10032000DB015340E022D20113400D4A13600D4B14
:1003300004221A60094B1B68DB05FBD5074B586884
:1003400080B2FFF7DFFF084905F099FD074905F086
:100350009CFD011C064805F092FD10BD00C0044044
:1003600000D0044000E004406ABC343F2D93E13AE1
:100370000000D84110B501248440D0231B065C61E5
:10038000124B1B68E022D2011340114A1360AF20C8
:10039000800003F04DF90F4B04221A600B4B1B68D1
:1003A000DB05FBD5094B586880B2FFF7ABFFD023C4
:1003B0001B069C6105F0ACFD074A084B05F003FCE9
:1003C000074A084B05F0E5FB10BDC04600C00440DD
:1003D00000D0044000E00440DE737C5F006AF84017
:1003E00032994C2693E9DC4010B5124B1A688023F1
:1003F0009B015340E022D20113400F4A1360AF200B
:10040000800003F015F90D4B04221A60094B1B689C
:10041000DB05FBD5074B586880B2FFF773FF05F08B
:1004200077FD074A074B05F0CEFB074A074B05F05F
:10043000B0FB10BD00C0044000D0044000E0044008
:10044000DE737C5F006AF84032994C2693E9DC4009
:1004500010B5012805D0002802D1174B994217D0BA
:1004600010BD154B9942F6D1144B1A0008321A6090
:1004700000225A601A726332114B002AEBDB1C0017
:1004800008341C6000245C601C721833013AF4E7E5
:100490000C4C0B4B9C420AD0183C206823000833BC
:1004A0009842F6D0A368591C05F00CFEF1E703480A
:1004B0002DF0EEF9D4E7C046FFFF00004C430020CA
:1004C000EC3900204C43002010B5054B1B78002B65
:1004D00000D110BD0168034805F0BCFFF9E7C04634
:1004E000681D0020B0B0031010B50168014805F088
:1004F000B1FF10BDC0B00310F0B5C64600B5040092
:100500000F001600080036F077FA050023000833C4
:1005100023600023636023727368191820002DF094
:1005200055FA0B4B62689B1A9D420DD82A00390080
:1005300020002DF057FB3168726820002DF052FB2F
:10054000200080BCB846F0BD02482DF06BF9C046D3
:10055000FFFFFF3FCCB0031070B58AB017E00F2348
:100560006B441E78304B5D686C1C1A6808339A42E5
:1005700022D02D4B9B689C4220D82B4B1A68565595
:100580005C601B681B1900221A700A2E1FD0274BB3
:100590009B6910210A001A40194243D1013969446C
:1005A000002ADCD1214B9B69DB06FBD41F4B1B6867
:1005B0000B7001320131F3E70F23DCE701230093D5
:1005C00000230022290018482DF0A6F9D5E7164A85
:1005D000174904A8FFF790FF04A8FFF775FF0498D8
:1005E00006AB984203D0069B591C05F06BFD114CDD
:1005F0002368013323605A00D318D8000E4BC0186B
:1006000009492DF04FF92368302B02DD094B0022F8
:100610001A600548426800230093084B00212DF022
:100620001DFAB4E70AB070BD4C43002000800340BF
:10063000E4B003106C1D0020EC3900202C9707104B
:1006400070B582B005000E1E0DD0941B01940F2CC6
:100650000ED82868012C14D0002C14D022003100B0
:1006600005F022FD0FE09142EFD00B482DF0C2F8CB
:10067000002201A928002DF0EDF82860019BAB6055
:10068000E7E733780370019A6A602B689B180022B1
:100690001A7002B070BDC046F8B0031030B58DB00E
:1006A00002AC0094264A1100203900236846FFF767
:1006B000C7FF6846FFF718FF0098A04203D0029BCF
:1006C000591C05F0FFFC0221082001F03DFB02212E
:1006D000092001F039FBE1211A4D4902280003F0FD
:1006E0003BFBEA6A602353406E221A408024640177
:1006F000154B23431A601549152001F05FFD0121B8
:10070000152001F031FD5023AB636A6B183B134099
:100710000F4A1443236008AC06940E4A511F00236D
:1007200006A8FFF78DFF06A8FFF7DEFE0698A04299
:1007300003D0089B591C05F0C5FC0DB030BDC04668
:1007400044B10310008003402C8003405905001081
:10075000348003404DB1031070B582B005000E1E09
:100760000DD0941B01940F2C0ED82868012C14D0A6
:10077000002C14D02200310005F096FC0FE09142CD
:10078000EFD00B482DF036F8002201A928002DF0FB
:1007900061F82860019BAB60E7E733780370019A4A
:1007A0006A602B689B1800221A7002B070BDC046A8
:1007B000F8B0031010B502490120FFF749FE10BD43
:1007C000FFFF0000014B01221A707047990B0120B6
:1007D00030B583B011E0194800F0B4FF184A13682F
:1007E00001331360042B02DD130000221A6003F0B2
:1007F000B3FCFA20800002F01BFF124B1B78002B89
:10080000F7D00E4C200000F00DFE05230093E222ED
:100810000D49200000F0E8FE00243225084B1B683B
:10082000A342D8DD094B0093022306222900034886
:1008300000F0B6FE0F350134F0E7C046D854002072
:10084000745900209A0B0120B0210020D8CD071048
:1008500010B584B0094805F0CDFD02A8084B020090
:1008600012CB12C21C002CF0B1FE6846030006CC6D
:1008700006C304492CF0FAFE04B010BD50B10310B9
:1008800000B50310C507001070B504000D0003008B
:100890000833036000290AD0080036F0ADF82A18A2
:1008A000002329002000FFF7CBFE200070BD0122AD
:1008B000F6E7000010B586B002AC00940B4A1100B8
:1008C0001A3900236846FFF7BBFE6846FFF70CFEA7
:1008D0000098A04203D0029B591C05F0F3FB0022B4
:1008E00001210A2001F048FA06B010BD7EB10310C4
:1008F00010B586B002AC0094164A110010390023DE
:100900006846FFF79DFE6846FFF7EEFD0098A0429F
:1009100003D0029B591C05F0D5FBD024240680236C
:100920009B02A36180235B02A36180231B01A3615F
:1009300080235B01A361084800F06EFD03F00CFC0E
:1009400013F014FA80239B01A36103F005FC06B0A9
:1009500010BDC04690B10310D854002010B58CB023
:1009600008AC0694274A11002039002306A8FFF797
:1009700067FE06A8FFF7B8FD0698A04203D0089BC3
:10098000591C05F09FFB0B2001F0BAFA112001F071
:10099000B7FA102001F0B4FA0C2001F0B1FA0D20E2
:1009A00001F0AEFA00220392049205921023049300
:1009B000154B059340230493144B1A609A60DA6038
:1009C000059A01921A61049A5A60012203990A4316
:1009D0001A600A2001F094FAD0231B06802212012B
:1009E0005A62802292025A62802252025A62802205
:1009F00052015A62802292015A628022D2005A62C7
:100A00000CB010BDB4B10310FFFF000000000540A2
:100A100010B58CB002AC0094214A11001F3900239C
:100A20006846FFF70DFE6846FFF75EFD0098A0429E
:100A300003D0029B591C05F045FB2CF0C5FB194B5C
:100A400002221A601F211B2001F07EF900220021E2
:100A50001B2001F091F900211B2001F039FA1F2120
:100A60001A2001F071F9002200211A2001F084F906
:100A700000211A2001F02CFA08AC06940A4A511FF2
:100A8000002306A8FFF7DCFD06A8FFF72DFD06985A
:100A9000A04203D0089B591C05F014FB0CB010BDFC
:100AA000D7B1031000E004404DB1031010B592B06F
:100AB00002AC0094274A1100283900236846FFF74A
:100AC000BFFD6846FFF710FD0098A04203D0029BCF
:100AD000591C05F0F7FA204920482CF0A7FC08AC77
:100AE00006941F4A11001A39002306A8FFF7A8FD33
:100AF00006A8FFF7F9FC0698A04203D0089B591CF2
:100B000005F0E0FA03210E2001F01EF903210F2069
:100B100001F01AF90EAC0C94124A11001C39002392
:100B20000CA8FFF78DFD0CA8FFF7DEFC0C98A04287
:100B300003D00E9B591C05F0C5FA002201210E209E
:100B400001F01AF9002201210F2001F015F912B06D
:100B500010BDC04600B20310801A060030240020E9
:100B60001EB203103CB20310F0B5CE46474680B526
:100B700097B0804689460CAC0A947C4A110017391C
:100B800000230AA8FFF75CFD0AA8FFF7ADFC0A984E
:100B9000A04203D00C9B591C05F094FA12F0C2FF3E
:100BA000734B01221A7001256D420027002624E0B4
:100BB0000136052E01DC002D07D1042E16DD002D97
:100BC00037D001370123002611E03200694902A81D
:100BD00004F006FD002406E0FA20800002F028FD63
:100BE00003F0BAFA01341D2CF6DDE6E70023002BF2
:100BF00021D1042F01DD002D46D1002D00D18AE046
:100C00005D4802F015FD03F0A7FA5C4B5C4A4946CB
:100C1000404613F05BF8050003F09EFA00240E2C0A
:100C2000C6DCFA20800002F003FD03F095FA0134DF
:100C3000F5E70023DBE712AC1094524A11002F397C
:100C4000002310A8FFF7FCFC10A8FFF74DFC10983C
:100C5000A04203D0129B591C05F034FA00243B2C0F
:100C600007DCFA20800002F0E3FC03F075FA01349F
:100C7000F5E700243B2CBCDCFA20800002F0D8FC15
:100C800003F06AFA0134F5E702F07CFC04000D1E63
:100C900009DBD0231B06802252015A61FA20400052
:100CA00002F0C6FC19E0384B384A3F21384803F0BF
:100CB0001DFBD0231B068022D2009A61354802F02A
:100CC000B7FC02F05FFC002912DB334A0023121943
:100CD0006B418B4212D903F03FFAD0231B065B68AD
:100CE0005B05E6D4D0231B068022D2005A61E5E7DB
:100CF000254B264A3F21264803F0F8FA8B4201D1C2
:100D00008242E8D8254A0021002003F077FA2448DF
:100D100000F082FBFEE703F01FFA224D280005F0E9
:100D200069FB134B00221A701D4C200000F07AFB67
:100D300005230093E2221C49200000F055FC009599
:100D400001230D223221200000F02AFC200000F0B7
:100D5000F9FC00F0B1FF094802F06AFC03F0FCF96D
:100D600017B0C0BCB946B046F0BDC04657B203107C
:100D70009A0B012058B20310C40900008813000028
:100D80000600400093B2031094B20310B0B20310F7
:100D9000E8B203102602000040420F00FFFF7F0070
:100DA000D854002024B30310B021002010B592B015
:100DB00002AC00942B4A1100253900236846FFF746
:100DC0003FFC6846FFF790FB0098A04203D0029BCF
:100DD000591C05F077F912F0E1FF00282DD10EAC77
:100DE0000C94214A511F00230CA8FFF729FC0CA8E2
:100DF000FFF77AFB0C98A04203D00E9B591C05F01C
:100E000061F90121002012F0ADFE03F0A5F9FA20EE
:100E1000800002F00DFC03F09FF9144B1A68144B8C
:100E20001968144B186800F065FD03F095F9124934
:100E30001248FFF799FE12B010BD08AC0694104A94
:100E400011002439002306A8FFF7FAFB06A8FFF7D4
:100E50004BFB0698A042EED0089B591C05F032F9D6
:100E6000E9E7C04655B303104DB10310684A0020AE
:100E7000644A0020B408012080B3031090B303102B
:100E80007CB3031008B4F0B582B000AF04000D00CD
:100E900011001C23FB1804CBC81DC008C0006E46FF
:100EA000301A85466E467B60A84732182300083307
:100EB0002360002331002000FFF74EFC2000BD46D8
:100EC00002B0F0BC08BC01B01847000030B5AFB0AC
:100ED00009AA874903A8FFF7D7FC03A8FFF704FB7B
:100EE00003A82CF0D5FC1EE0102229000CA805F068
:100EF000DBF83EE01022290018A805F0D5F875E0CF
:100F00001022290024A805F0CFF8ADE0FFF74EFF2E
:100F10000024784B1C702CF09BFB03F01DF9764BE2
:100F20001C7003F019F903F017F9FFF75DFA734B22
:100F300018605960A42200900191714B52007149D0
:100F400010A8FFF79FFF119A002A00D00022122359
:100F500000936D4B002110A82CF080FD04000CAB19
:100F60000A93036805000835AB42BDD00A93836835
:100F70000C9363680B9325600023636023720AA8B7
:100F8000FFF7B2FA0A980CAB984203D00C9B591C9D
:100F900005F098F8109812AB984203D0129B591C98
:100FA00005F090F803F0D8F81120FFF7E3F9A42238
:100FB00000900191524B520052491CA8FFF762FF6A
:100FC0001D9A002A00D00022122300934F4B0021CB
:100FD0001CA82CF043FD040018AB16930368050011
:100FE0000835AB4286D016938368189363681793CD
:100FF000256000236360237216A8FFF775FA169820
:1010000018AB984203D0189B591C05F05BF81C984C
:101010001EAB984203D01E9B591C05F053F803F0F9
:101020009BF81020FFF7A6F9A42200900191344B01
:101030005200344928A8FFF725FF299A002A00D03A
:10104000002212230093324B002128A82CF006FD29
:10105000040024AB2293036805000835AB4200D19D
:101060004EE72293836824936368239325600023CB
:101070006360237222A8FFF737FA229824AB9842C4
:1010800003D0249B591C05F01DF828982AAB9842E0
:1010900003D02A9B591C05F015F803F05DF8FFF703
:1010A0003BF9D0231B065B68DB0901241C4003F0DD
:1010B00053F8002C00D034E703F04EF8FFF718FC8B
:1010C000022000F0B5FBFFF7C3FB01220A4B1A70A8
:1010D000D0231B065B68DB0C1A4200D016E7054BD9
:1010E0001B78002B00D011E703F036F8EDE7C0467F
:1010F0009CB30310990B0120920B01209822002031
:10110000B0B3031009560010B4B30310C8B30310F2
:10111000DCB3031010B5C2B005F0A8F905F0DCFA95
:1011200009AA5E4903A8FFF7AFFB03A8FFF7DCF9A4
:1011300003A82CF0ADFBFA20C00002F079FA10AA47
:1011400057490AA8FFF7A0FB0AA8FFF7CDF90AA89C
:101150002CF09EFB12F022FE00280ED017AA514957
:1011600011A8FFF791FB11A8FFF7BEF911A82CF009
:101170008FFB0120404242B010BD1EAA4A4918A868
:10118000FFF782FB18A8FFF7AFF918A82CF080FB37
:10119000FFF7E4FBFFF78AFCFFF780FAFFF738FC64
:1011A000FFF788FB25AA41491FA8FFF76DFB1FA881
:1011B000FFF79AF91FA82CF06BFBFFF715F93C4BD2
:1011C000186059602CAA3B4926A8FFF75DFB26A8AA
:1011D000FFF78AF926A82CF05BFB0121002012F012
:1011E000C1FC354C354B00933C232022802120004C
:1011F00000F082F8200000F015F9314A3149200052
:1012000000F098FA200000F09DFAFA20C00002F0E9
:101210000FFA33AA2C492DA8FFF736FB2DA8FFF7AC
:1012200063F92DA82CF034FB2CF09AF927482BF009
:10123000B9FF274B1A69274B1A60274BA8229958E8
:10124000264A1160AC229A58254B1A603AAA2549C1
:1012500034A8FFF719FB34A8FFF746F934A82CF09F
:1012600017FB0021204802F0BDFF02F0EBFF002831
:1012700007D102F071FF1D491D48FFF775FCFFF70C
:1012800025FE41AA1B493BA8FFF7FEFA3BA8FFF742
:101290002BF93BA82CF0FCFAEBE7C046F0B30310A7
:1012A00014B4031058B3031048B1031038B403103A
:1012B000982200206CB40310D85400203024002061
:1012C0003E040000701D002080B40310D107001000
:1012D00000ED00E0B408012000800040644A0020D6
:1012E000684A00209CB403102823000080B3031038
:1012F00090B30310C0B40310F0B58BB00500C8B2B2
:101300002870D6B26E70D208D2B2AA70EB70109B61
:101310006B60070050432861013004F049FEE8602B
:10132000002842D00130E86003AC192200212000DF
:1013300004F0B4FEAE23237027336370553BA370D3
:101340002833E3702B336371933BE3714D33237286
:101350001433A3722733E37212332373593BA373FD
:101360007E33E373263B23740233A374AB3BE374F5
:1013700074332375023363750933A3758F3BE375AB
:10138000731E23712B7A002B11D0102103AA5172E6
:101390007600B7420DDD022103AA5173002B0AD05B
:1013A000222203AB5A7400240CE0286129E01421A6
:1013B000ECE71221F0E7F122F3E71349134805F0B7
:1013C00049F80134182C1BD803AB1A5D0023694679
:1013D0000B814A72E9780093023302AA68682CF004
:1013E00051F8831CE9D0431C05D002220649084865
:1013F00005F030F8E5E70449064805F02BF8E0E78A
:1014000001200BB0F0BDC04610B5031020B503108D
:1014100050B5031040B5031010B5C068013804F092
:1014200025FE10BD10B50300C0681A69002104F044
:1014300035FE10BD10B503788B420DD94478944227
:101440000AD9C068D40863435B1807210A400639EB
:101450009140C25C0A43C25410BDF0B5D6464F4617
:101460004646C0B58146884617009A46089E002524
:1014700009E0E2194346E9184846FFF7DBFF01346B
:10148000B442F6D30135554501D20024F8E7E0BC5B
:10149000BA46B146A846F0BDF0B5DE4657464E46C0
:1014A0004546E0B589B081468A4693461E0012AB98
:1014B00004CB059219780791D3788B4243D81379DE
:1014C0008B4240D31278D108072313405A1E934110
:1014D000CB1804930023069323E0013464B26D0813
:1014E000072C0EDCEB07F8D5FA00121972435A44A8
:1014F000039971435144009633004846FFF7ADFF0E
:10150000EBE701239C46E0440137049B9F4204D251
:10151000059B42469D5C0024E2E7069B0133DBB25B
:101520000693059A537806998B420CD9D27807987E
:10153000821A534303918C466344049A5343053300
:1015400098460027E1E709B0F0BCBB46B246A94681
:10155000A046F0BDF0B5D6464F464646C0B582B06F
:101560008246914698460A9F0B9E0D000EE001367A
:101570000193009743464A4629005046FFF78CFFE7
:101580007C78BB78E41843465C432D193378002BF4
:10159000EDD102B0E0BCBA46B146A846F0BD0000AD
:1015A00010B582B0049C0194024C0094FFF7D2FF66
:1015B00002B010BD88B50310022B0FD0042B0BD145
:1015C000885C89184B781B0218438B781B041843DE
:1015D000CB781B06184300E0885C7047885C89184C
:1015E0004B781B021843F8E7F0B5DE4657464E46E7
:1015F0004546E0B587B007000D00019300239846EB
:10160000352A2BDD04330A22FFF7D6FF039004238B
:101610000E2229003800FFF7CFFF05900423122285
:1016200029003800FFF7C8FF06000423162229000E
:101630003800FFF7C1FF049002231C222900380064
:10164000FFF7BAFF84B204231E2229003800FFF7F7
:10165000B3FF0290012C01D1002806D007B0F0BCE6
:10166000BB46B246A946A046F0BD05980E30002103
:1016700001290ED88A001218AB5C1B04AA185478F2
:10168000240223439278134302D00131C9B2EFE719
:101690008846F317072213409B19DB1011003140D5
:1016A000324200D001219B468B445B469B0705D00C
:1016B00003235A469A43130004339B46039B9C46DC
:1016C0006544049B002B11DD01235B420393049BC3
:1016D000002B0EDD01235B429A46049C002C0ADDA0
:1016E000631E99463B00474698461FE0012303933B
:1016F000EDE79A46F1E70124F2E70134A64211D959
:10170000E308EB5C0722A24313411A0001231340B4
:10171000BB42F2D1109A4A44019BE1184046FFF7C0
:1017200089FEEAE75D44039B9C46E144CA4595D0A7
:10173000029CE3E700B583B000230093FFF754FF5A
:1017400003B000BD30B587B0050004AC062200210F
:10175000200004F0A3FC212323700133E3702978D7
:101760004B1EDBB2A370AA78013A6271402901D006
:10177000002409E0203961702033A370F8E7234981
:10178000234804F067FE0134052C1BD804AB1A5D16
:10179000002369468B814A73E9780093023303AAD8
:1017A00068682BF06FFE831CE9D0431C05D0022231
:1017B0001649184804F04EFEE5E71449164804F0AF
:1017C00049FEE0E7EB68013B40221A706868E9785F
:1017D000EB685A1E2C6901340023009323002BF080
:1017E00051FE831C07D0431C0BD022000B49094833
:1017F00004F030FE03E00949054804F02BFE07B071
:1018000030BD0649044804F025FEF8E710B5031082
:1018100020B5031050B5031040B5031074B5031084
:101820000138C3B2002001229A424041C0B2704741
:1018300030B583B00400FFF7F3FF002839D0244B04
:101840001C70012C3BD0234D012C3AD00021009577
:101850002B000022042002F0D5FA00952B00002274
:101860000021052002F0CEFA072002F0B5FA082088
:1018700002F0B2FA012C26D00222174B00932B0063
:101880000021092002F0BEFA00952B000022002161
:10189000062002F0B7FA114802F052FC104802F09C
:1018A0004FFC012C11D002F0E9FC00F037FA03B034
:1018B00030BD0C4B0C4A2B210C4802F017FD0C4D8F
:1018C000C2E70221C3E70322D7E700F067F8ECE79D
:1018D0007D0B0120A02E63001BB70000008002409A
:1018E00000C00240C0B7031038B8031090B703100F
:1018F000001BB70010B580235B041F4C23601F4CF6
:10190000A4691C4220D11E4B1E4C1C601B4B9B69C2
:10191000DB011FD480235B04174C2360174CA469A0
:101920001C421DD1154B174C1C609B69DB011DD45B
:10193000154B1861154BAC201A50A822995002F093
:10194000E3FA04F093FD10BD114B124A51211248E5
:1019500002F0CCFC0E4B0F4A53210F4802F0C6FC9C
:101960000B4B0C4A51210C4802F0C0FC084B094AB1
:101970005321094802F0BAFC183006400000064026
:101980000040024000F0FF0000ED00E00080004059
:10199000E8B703102CB80310FCB7031010B51149B9
:1019A0000B68114A1A40114B13438022520410480D
:1019B00002608969114209D10A4A13609369DB0107
:1019C0000AD4084B9B69002BFBDB10BD094B0A4A6C
:1019D00051210A4802F08AFC064B074A5321074866
:1019E00002F084FC00000640FF0F00FF00E0D10081
:1019F00018300640E8B70310D0B80310A0B80310A1
:101A000010B50821012004F0F1FA041E01D02000D5
:101A100010BD024804F0EEFCF9E7C046DCB8031044
:101A200010B50400024804F015FD0023236010BD2A
:101A3000F8B8031010B504000123037100680028F2
:101A400020D0002109F0C2FC00220021206809F00A
:101A5000CDFC0021206809F0C1FC0021206809F0BC
:101A6000D4FC206809F021FD011E02D1002323606F
:101A700010BD054804F0EEFC206809F00BFD0D20B8
:101A80004042F3E70020F3E70CB90310F0B5C64677
:101A900000B500AF06000D00141E0AD01289002AFE
:101AA0000ED1200009F0A8F80020BD4680BCB84641
:101AB000F0BD104804F09EFC3000FFF7BBFFF4E7D8
:101AC0006E4613000833DB08DB00F31A9D46E84638
:101AD00000236946200009F0A9FA23890022414623
:101AE000CA54054804F0B6FC2189280009F091FC8D
:101AF000B546D6E72CB9031040B9031010B5040061
:101B0000034804F0A7FC2000FFF794FF10BDC04677
:101B10006CB9031070B504000D0011F0F5FE010062
:101B2000BC26FF3632000B4804F094FC0A4B32000E
:101B30002100286809F08CFC021E00D170BD074B03
:101B40001B68D868064933F0B5FE2800FFF772FF1E
:101B5000F4E7C04678B90310991B00104024002018
:101B60009CB9031070B50C001500002907D0084877
:101B700004F040FC29002000FFF7CCFF70BD0100FD
:101B8000044804F067FC2800FFF754FFF6E7C0465E
:101B9000C0B90310D8B9031010B50400111E06D047
:101BA0000C4804F057FC2000FFF744FF10BD0A4822
:101BB00004F020FC012343220849206809F09DFC21
:101BC000011EF3D0064804F045FC2000FFF732FF69
:101BD000ECE7C046F8B903100CBA031034BA03108E
:101BE00078BA031030B583B005000C0002F0B4FAE7
:101BF000294B18682E2109F026FE2060002833D0DA
:101C0000210009F0E3FB1E222449206809F0EEFBC5
:101C10002349206809F0E2FB2249206809F0F5FB1E
:101C200002F09AFA206816F009FF29002AF0A6FDB2
:101C300029001D4804F00EFC02F08EFA15F090FD0C
:101C400023001A4A01A9280008F05AF9051E10D0ED
:101C5000431D13D102F080FA15F08CFD002D17D032
:101C60006B1D13D0002014E0114804F0C3FB0020CA
:101C70000FE0210001A8FFF74DFFEBE701000D4841
:101C800004F0E8FB2068FFF7D5FEE3E7012000E061
:101C9000012003B030BDC04670430020FD1A001083
:101CA0008D1A0010211A0010ACBA0310651B001029
:101CB00094BA0310BCBA031010B50021002016F02E
:101CC0000DFF124B1860FFF79BFE041E09D00100A8
:101CD0000F48FFF787FF00280DD10E4804F08AFB5C
:101CE00013E00D4804F086FB0FE002F035FAFA200D
:101CF000800001F07BFB2379002BF6D0200004F05C
:101D0000B5F9024B186816F0A0FE10BD7043002014
:101D100000BB031014BB0310E4BA031010B5E1219B
:101D20004902074802F018F80221002000F00CF8E0
:101D30000221012000F008F8024B1B7810BDC046BC
:101D40000040034008D8071010B58300084A9446A5
:101D500063441C6840226240C02414408022520127
:101D600013431C60C000034B9C466044416010BD9F
:101D700004C001400040014080000B4B9C46604481
:101D800000290DD00823002A0CD004221343026836
:101D900053400C22134080225201104303607047CD
:101DA0000023F0E70022F1E704C00140002909D038
:101DB0008000094B9C46604480239B01184302230A
:101DC000036070478000044B9C466044C0239B0125
:101DD000184302230360F4E704C0014070B5D02328
:101DE0001B061B689D00094C2C59204207D19B0003
:101DF0002043064C18510D2000F00AFA70BD044B28
:101E0000044ACC21044802F071FAC0469808012027
:101E100038BB0310ECBB031064BB031010B5040007
:101E2000D0231B061B689B000A4A9B5818420BD004
:101E30000D2000F007FBD0231B061B6805499B0003
:101E40005A58A2435A5010BD034B044AD6210448A5
:101E500002F04CFA980801209CBB0310C8BB031089
:101E600064BB0310072303409B00C00899403C302B
:101E70008000014BC150704700400140F8B5070099
:101E80000C0016001D00FFF7EDFFFB089B00ED188E
:101E90000720384080008440002E04D080239B011E
:101EA0001D432C60F8BDC0239B011D432C60F9E746
:101EB00010B5D0231B061B68002B03D0024BFFF785
:101EC000DDFF10BD014BFAE7304101400041014008
:101ED000002909D08000094B9C46604480239B0167
:101EE00018434023036070478000044B9C466044C5
:101EF000C0239B01184340230360F4E704C0014062
:101F000010B501238340D02212069362936105210C
:101F1000FFF71AFF10BD0000034B1B68022018409A
:101F2000431E9841C0B2704700C00640EFF31080D6
:101F300072B6034B1B68002BFBD0BFF35F8F70475B
:101F40002C0100D0BFF35F8F024B00221A6080F398
:101F5000108870472C0100D0F8B506000C00150061
:101F6000FFF7E4FFE308F718F15C072222400123A2
:101F700093400B4205D1DBB20B433B70FFF7E2FF0E
:101F8000F8BD2100280002F079FAF0B583B0060010
:101F9000019114001F00FFF7C9FF00E00134BC42AB
:101FA0000CD8E308F518F35C0721214001228A4090
:101FB0001A42F3D1D2B21A432A7001E001246442DA
:101FC000FFF7C0FF002C02DB200003B0F0BD019B37
:101FD000002BF9D0089802F051FA000070B5050006
:101FE0000C00FFF7A3FFE308EE18EA5C07210C40A2
:101FF0000123A340134204D09A433270FFF7A2FF9B
:1020000070BD034B034A2C31034802F06FF9C04600
:1020100020BC031078BC031040BC0310002307E071
:10202000054A9A189200BFF35F8F002111600133B7
:102030001F2BF5D97047C04640000034054A107880
:10204000431CDBB21370172B02D9130010221A7035
:102050007047C046A022002000B583B00100044BA9
:1020600000931F2318220348FFF78FFF03B000BD22
:1020700088BC0310604A0020074B9B68103080002A
:102080001950BFF35F8FBFF35F8F044B00211960BE
:1020900082F310887047C04600ED00E0240100D0B4
:1020A0001F23181A7047000010B5091A081F0A4BA1
:1020B0009C466144094A914208D8C30706D440109F
:1020C0004005400D064B184380B210BD054B064A33
:1020D000A321064802F00AF9FC070000FE0F0000E9
:1020E00000E0FFFFA4BC031008BF0310D4BC031022
:1020F00010B5091A04394C08090B08D14905490DD6
:10210000064A11430180064B2343438010BD054B13
:10211000054AAB21054802F0E9F8C04600F0FFFF90
:1021200000F8FFFF08BD0310DCBE0310D4BC031091
:1021300001238340034A10681840431E9841C0B2EF
:102140007047C04600E100E0002904D0034B18604E
:10215000034B18607047034B1860FBE780E200E018
:1021600000E100E080E100E010B5012383401800A9
:10217000FFF7EAFF10BD000001238340014A13600E
:102180007047C04600E200E0024B9B6810308000C0
:10219000C058704700ED00E010B5FFF7F5FF0028CC
:1021A00005D0054BC01A2F2803D8012010BD0020F0
:1021B000FCE70020FAE7C046A422002070B5040026
:1021C0000D00EFF3108672B60C4B1B68002BFBD092
:1021D000BFF35F8F2000FFF7D7FF094B984201D074
:1021E000A84205D1320029002000FFF745FF70BD4D
:1021F000044B054A8621054802F078F8240100D0F6
:10220000CD01001018BD03103CBF0310D4BC031057
:10221000F0B5DE4657464E464546E0B589B08146A4
:1022200001911500EFF3108A72B6744B1B68002BF6
:10223000FBD0BFF35F8F724B0027DF57002F40DBCF
:102240007C00E419A4006F4824180622A2566C4BA7
:102250001A706D4B9A684B4610339B00D3589846C2
:102260001E001B1A2F2B38D9684B98452FD105AE6D
:10227000674B33807B009B46D8198000614B9846A2
:10228000404402306349FFF70FFF7080624BB38018
:10229000FF23B371F571019B07935F44BF0047446F
:1022A0000ECE0EC701231C43A04652464146484667
:1022B000FFF7E2FE09B0F0BCBB46B246A946A04615
:1022C000F0BD564B564AD721564802F00FF8564BF0
:1022D000534ADE21534802F009F8C04340440C2120
:1022E00003F012FA002912D101239E43B3463300B2
:1022F0000026DA79AA4211D90621595600290CDBA9
:102300004A00521892001E003E4B9B18F1E7474BC3
:10231000434AEA21434801F0E9FF1E00002E3AD06B
:1023200005AB434A1A80813A5A800623F35602933A
:10233000002B17DA3F4805AB9B469880029A9A71AA
:10234000DD71019A0792301D2100FFF7ADFEB080CC
:10235000B7717B00DB199B002A4FFF185B4607CB48
:1023600007C7A2E77800C0198000264BC0180430C8
:10237000321DB388D90A1C2907D15B0559150231D2
:1023800049005118FFF790FED5E72B4B2B4AB1219E
:10239000244801F0ABFF05AE1D4B33807B00029358
:1023A000D8198000174A9046020042440392901CBC
:1023B0001849FFF779FE7080039A101D5946FFF700
:1023C00073FEB0801E4B5A464146521A5241534347
:1023D0001B0DB371F571019A0792029B9C466744ED
:1023E000BF0047440ECE0EC7114B5A461380813BA7
:1023F000538001231C43A04657E7C046240100D068
:102400008A0B0120A422002000ED00E0CD01001085
:1024100000A1FFFFD422002001BDFFFF50BD03102B
:1024200024BF0310D4BC031078BD0310A0BD03105B
:102430000148000001BD000014BE031014BF0310CA
:10244000AAAA0000F0B5CE46474680B583B0060084
:102450000D00EFF3108872B6564B1B68002BFBD0B3
:10246000BFF35F8F544B9A6834001034A300D758E1
:10247000524B9F4207D0AF4200D198E00197504B9A
:10248000FB1A2F2B09D9424639003000FFF7F4FD23
:1024900003B0C0BCB946B046F0BD3000FFF748FEFF
:1024A000814600213000FFF75FFEBFF35F8FEFF33F
:1024B0000581002901D08C4211D10123019C9C434C
:1024C0000022A368AB4212D00622A256002A0DDBDE
:1024D00053009B189B002200394CE418F1E7362189
:1024E000384B394AFF31394801F000FF2200AB4236
:1024F00056D106256557002D38DB6B005B199A0015
:102500002F4B9B189A68A260DA79E27106229A56DC
:10251000A2719B795BB2002B0FDA2D48A0806B0073
:102520005B199B00264AD3182A4A117899711570B5
:1025300049463000FFF718FEA5E7201D6B005B1928
:102540009B001F4A9B181A1D9B88D90A1C2907D17A
:102550005B055B15023359005118FFF7A5FDDDE758
:102560001D4B1E4AB121194801F0C0FE002912D1AD
:10257000002A0ED0FF239371194B9380154A1378CC
:10258000A371184B0E49641A644163431B0D137009
:10259000CEE70A4FF2E7201D1349FFF7A9FDC7E771
:1025A0006A21124B084AFF31084801F09FFE034F91
:1025B00069E7C046240100D000ED00E0CD01001025
:1025C000A42200202CBE0310F4BE0310D4BC0310C0
:1025D00001BD00008A0B012014BE031014BF0310BC
:1025E00001BDFFFFAAAA0000DE22002060BE03108A
:1025F00010B5032304009C43064A944664442268B1
:102600001840C000FC3383409A43130081400B43C1
:10261000236010BD00E400E070B5012101432E4BA2
:10262000CB1A2F2B28D8EFF30583002B2BD0EFF3F9
:10263000108C72B6294A1268002AFBD0BFF35F8F54
:10264000274A0400244D641B64416243120D54B2B6
:10265000244A92689B00D2588A421BD00022032A47
:1026600032D853009B189B001B49CB189B795BB257
:10267000A3421FD00132F2E7C7211B4B1B4A49007E
:102680001B4801F033FE92211A4B184AFF311848BB
:1026900001F02CFE134A92681749D150174B1A7853
:1026A00082711C70BFF35F8F0C4B00221A608CF399
:1026B000108870BD0D005300991889006918FF2615
:1026C0008E710F4A8A80E9E7D1210E4B074A4900F3
:1026D000074801F00BFEC046A4220020240100D0D0
:1026E000AAAA000000ED00E068BE0310C0BE0310FF
:1026F000D4BC031090BE0310CD0100108A0B012042
:1027000001BDFFFF9CBE03100022044B02E0044900
:1027100002C30132072AFAD97047C04600E400E03C
:102720008080808010B5FFF7BBFC01000148FFF7F7
:1027300055FC10BD980B012000B583B00100064B7D
:102740000093052300220548FFF71FFC002801DB4A
:102750001F23181A03B000BDA4BE0310980B01205C
:1027600070B504000E001500FFF768FC01002000A2
:1027700000F006F8A680E580BFF35F8F70BD000013
:10278000024B9C4661448900016070474000003460
:1027900010B50400FFF752FC01002000FFF7F0FF26
:1027A000FF232371BFF35F8F10BD10B50400FFF747
:1027B00045FC01002000FFF7E3FFFF232371002306
:1027C0006371BFF35F8F10BD034B9C46614489006A
:1027D0000160BFF35F8F70474000003410B5040004
:1027E0000120FFF739FC01002000FFF7EDFF10BDCD
:1027F00070B505000C00080000F0EEFF094920004C
:1028000000F02EFFFFF71AFC074B9C466044800047
:1028100068602C75D0231B061B786B75A400034BD6
:10282000E55070BD352B001040000034CCF800207E
:102830000A4B1A68EFF3108172B61368002BFCD0B4
:10284000BFF35F8F054B1B68BFF35F8F00221A60D9
:1028500081F3108840BF002000217047C00A01208A
:1028600010B5002922D003681B7B99421ED8174B54
:102870009C466144090183689C4661440C68496830
:10288000002A19D003681B7B9A4215D883680F4829
:102890008446624412019A181068536802000120AD
:1028A0008B4201D80ED00020C0B210BD084B094A9F
:1028B0003C21094801F01AFD054B064A3C21064817
:1028C00001F014FDA242EFD8EDE7C046FFFFFF0F75
:1028D000B0C0031030C3031080C0031010B500292E
:1028E0001ED0037B99421BD84B005B18033B046846
:1028F000A4466344002919D0002A1DD0914221D05A
:10290000002A25D0047BA24222D8046850008018F7
:10291000033820188170197800291FD11A7010BD52
:10292000104B114A6821114801F0E0FC104B114A8C
:102930006F310E4801F0DAFC0F4B0E4A70210B4844
:1029400001F0D4FC0D4B0B4A7121084801F0CEFC7C
:10295000044B054A6821054801F0C8FC41701A7013
:10296000DDE7C046D4C00310B0C30310F0C00310AD
:1029700030C103108CC303103CC1031048C10310C5
:1029800070B506000D001400002914D0002A14D0E0
:10299000806873689847002806D02200290030001C
:1029A000FFF79CFF280007E02A0021003000FFF716
:1029B00095FF200000E0100070BD0800FCE700005B
:1029C000F0B583B00500009201930AAB1C780BAB05
:1029D0001F78002C26D003685A7B944207D101232C
:1029E000002B19D1002C3BD1200003B0F0BD002CEE
:1029F0000CD01A7B944209D81A6863001B19033B58
:102A0000D3189B78002BEBD00123E9E73E4B3F4ADC
:102A100068213F4801F06AFC3E4B3F4A67213F482E
:102A200001F064FC03689C7B002CDBD012D01A7B85
:102A300094420FD862001219033A19688C46624416
:102A400051789973002900D1D97300239370537082
:102A50001370C7E72C4B2D4A68212D4801F046FC26
:102A6000002C3AD02B681B7B9C4236D82C4BE318A9
:102A70001B01AA6894466344009A1A60019A5A603E
:102A8000089A9A60099ADA602E68002C2BD030D010
:102A9000337B9C422DD863001B19033B326894465C
:102AA000634400229A705A701A70717B22003000C1
:102AB000FFF766FF7073844200D095E7287D009A87
:102AC000019B00F015FE061E01D0002F17D00C9BB5
:102AD000002B00D188E71E7086E7124B124A3C217A
:102AE0000E4801F003FC114B114AA521084801F0E2
:102AF000FDFB054B054A6821054801F0F7FB2868F6
:102B0000210001F06BF8E2E7D4C00310B0C303105A
:102B1000F0C0031060C10310BCC3031080C00310D9
:102B2000FFFFFF0FB0C0031030C303107CC00310C1
:102B3000A0C30310F0B5DE4657464E464546E0B505
:102B40008BB00990002308938200B54BD65837000C
:102B500052E0B44BB44A3F21B44801F0C7FBB44B38
:102B6000B44A3C21B44801F0C1FB002901D100283E
:102B700069D10021404601F027F8A04219D12A6806
:102B80006B6806920793AB689846EB689A46434693
:102B9000002B14D0002C18D03B681B7B9C4214D80F
:102BA000631EFA68D35C08931B0218433861002047
:102BB00015E0A24BA24A8E219F4801F097FBA14B42
:102BC0009F4A92219C4801F091FB994B9E4A4121DA
:102BD000994801F08BFB00239A46984600207B68B9
:102BE000BFF35F8F00221A6086F310884346002BE4
:102BF00032D1002800D10CE100F0C4FC02000B1E11
:102C0000A7DB00200021069007917868EFF310867B
:102C100072B601680029FCD0BFF35F8F396888461F
:102C20004C7B002CD7D09AD0097B8C4297D887490F
:102C300065182D01B9688C46654428686968801A52
:102C40009941002991DD2A686B68099800F050FDD0
:102C500000239A469846C2E7089B1B0223439946E5
:102C600051461800C04705000E007A68EFF3108B3C
:102C700072B6136859424B41D9B2002BF9D1BFF358
:102C80005F8F002E1EDB002E46DD3B69002B47D0F8
:102C90004B456DD100F076FC02000B1E6EDB521925
:102CA0007341002B70DB002B72DB0021049101319A
:102CB0000391029451460191414600913800FFF77B
:102CC0007FFE4CE03B69002BDDD04B4514D1069ACA
:102CD000079B521BB341002B14DB002B16DB00219A
:102CE00004910131039102945146019141460091B2
:102CF0003800FFF765FE32E0554B514AA1214E489E
:102D000001F0F4FA01225242524BE6E7454B464AA3
:102D10003F21464801F0EAFA002E01D1002DB4D13E
:102D20003B68002C50D05A7B944237D101210029B6
:102D30004AD1DA7B002A4DD19A7B002A03D1DA7B73
:102D4000002A5AD19C73DC73002C5CD03B681B7B3F
:102D50009C4258D8FA68013C135D01331355002397
:102D60003B617A68BFF35F8F13608BF3108843E792
:102D7000374B334AA421304801F0B8FA294B2A4A8C
:102D80003F212A4801F0B2FA01225242314B8AE730
:102D9000244B254A3F21254801F0A8FA002C0DD0EC
:102DA0001A7B94420AD862001219033A18688446C2
:102DB00062449278002ABAD00121B8E7264B274A0C
:102DC0006821274801F092FA264B274AF621244829
:102DD00001F08CFA002A0AD0197B8A4207D85100E8
:102DE0008A18033A19688C4662445470A4E71A4B57
:102DF0001A4A68211A4801F079FA1C4B1A4AFB2139
:102E0000174801F073FA0A4B0F4A41210A4801F0B2
:102E10006DFA0BB0F0BCBB46B246A946A046F0BD69
:102E2000CCF8002094B20310FCC20310E8B20310E7
:102E3000B0C0031030C3031080C0031088C103105A
:102E400014C30310A0C1031068C30310FFFFFF0FDA
:102E5000ACC10310FFFFFF7FD4C00310B0C3031049
:102E6000F0C00310E8C103107CC303100CC20310B0
:102E700010B50C4B5B68002B04D00A210A48FFF701
:102E80007FFC10BD074C2300084A1021206800F089
:102E90008DFD032000F052FB03212000FFF7A8FC6A
:102EA000EBE7C046EC220020C00A01206128001098
:102EB00010B5064B5B68002B01D0044810BD044BD5
:102EC000044A5E21044801F011FAC046EC220020B9
:102ED00020C2031050C3031080C0031070B505005A
:102EE000182003F065F8040002000C49280000F0E7
:102EF00064FD20601021280003F078F8A060012113
:102F0000280003F073F8E060012000F02BFB0100C3
:102F10002000FFF76DFC200070BDC0466128001046
:102F200010B50400164B98421DD0037D9900154A38
:102F30008A5882421DD19B00124A00219950006894
:102F400000F051FD207D002100F08AFB207D00F083
:102F500001FBE06803F08AF8A06803F087F820001E
:102F600003F084F810BD084B084AD321084801F04B
:102F7000BDF9084B054AD721054801F0B7F9C0460D
:102F8000EC220020CCF8002060BE03103CC30310EC
:102F900080C0031044C20310F0B5DE4657464E46CB
:102FA0004546E0B58BB0804616001F00149B9A463C
:102FB000159B994616AB1B789B461F2302AA944685
:102FC000634400221A702BE0002809D042461268A0
:102FD000127B904204D8421E4146C9688A5C41E097
:102FE000404B414A4121414801F080F907984CE0AB
:102FF000361BAF41002F07DB002F11DA3C4B3D4A57
:103000003F213D4801F072F9012676423B4FF3E73C
:10301000374B384A3F21384801F068F9002F4FDB21
:1030200043465A68EFF3108472B6136859424B4115
:10303000D9B20791002BF8D1BFF35F8F1F3302AADB
:103040009446634404930023039302934B460193F5
:103050005346009332003B004046FFF7B1FC031E8D
:10306000B2D1020041464968BFF35F8F00250D6071
:1030700084F31088002B29D01F2302A98C466344B7
:103080001B78002BB2D112021043002B20D05B46DC
:10309000002B1DD04946D04704000D0003000B4310
:1030A0001DD00029A4DB00F06DFA06000F1EAFDB77
:1030B00036196F41002FB1DA012676420F4FADE786
:1030C0000B4B0C4A3F210C4801F010F90120404203
:1030D0000BB0F0BCBB46B246A946A046F0BD07986F
:1030E000F6E7C046B0C0031068C3031080C00310E9
:1030F00094B20310FCC20310E8B20310FFFFFF7F7D
:10310000F0B589B005001F21694400200870686887
:10311000EFF3108772B601680029FCD0BFF35F8F10
:103120001F216944049101210391002102910F990B
:1031300001910E9900912800FFF742FC0400031E44
:1031400012D106006A68BFF35F8F0021116087F318
:103150001088002B1CD01F236B441B78002B13D12D
:103160003002204309B0F0BD002807D02A68127B46
:10317000904203D8421EE9688E5CE3E7064B074A9B
:103180004121074801F0B2F8287D00F045FBE7E750
:1031900001204042E6E7C046B0C0031068C30310F8
:1031A00080C00310F8B504004268EFF3108572B6D2
:1031B000136858424341D8B2002BF9D1BFF35F8F57
:1031C000CBB22268567BB3421BD10120002848D0E5
:1031D000206988422BD0090AC9B2002B2ED0206862
:1031E000007B83422AD8581EE668305C88422BD088
:1031F00000206368BFF35F8F00221A6085F3108898
:10320000F8BD002B0DD0167BB3420AD85E00F6182D
:10321000033E1768BC466644B678002ED6D001201F
:10322000D4E7134B134A6821134801F05FF8952146
:10323000124B134A4900134801F058F8124B134A35
:103240004121104801F052F81900100000F0C6FCAE
:103250000028CED132210E4B094AFF31094801F036
:1032600045F823698B42C4D100232361C1E7C046DE
:10327000D4C00310B0C30310F0C003106CC203101D
:10328000E4C2031080C00310B0C0031068C3031071
:1032900090C20310407D7047F0B587B006000F0064
:1032A000EFF30583002B1FD106246442E517A41910
:1032B0007D418D4202D803D1844201D900240025EA
:1032C000002D14DB0494059500F05CF902000B1E40
:1032D00013DBA41A9D41002D17DC14D030003900F7
:1032E00000F05CF907B0F0BD234801F0C7F8234BAC
:1032F000234A3F21234800F0F9FF204B204A3F2179
:10330000204800F0F3FF002CE8D0FFF7D1FD0023A8
:10331000029301931C4B0093049A059BFFF73CFE1C
:10332000002818DADAE7002300E00023002BD5D1CB
:10333000164B1A68EFF3108172B61368002BFCD09D
:10334000BFF35F8F114B1B68BFF35F8F00221A60C2
:1033500081F3108820BF0499059A0D4B5B6A9A424D
:10336000E3D80B48806A884203D29A42DBD001231B
:10337000DCE70123DAE7C04694C2031094B20310DD
:10338000FCC20310E8B2031031280010C00A01206B
:103390000040054070B504000D0000F0F3F8020095
:1033A0000B1E0ADB200029008018594100290ADB86
:1033B00000290CDBFFF770FF70BD084B084A3F2166
:1033C000084800F093FF012040420749F0E7034B13
:1033D000034A3F21034800F089FFC04694B203101E
:1033E000FCC20310E8B20310FFFFFF7F10B5FA2202
:1033F00092000023002102F025FDFFF7CBFF10BD56
:1034000070B584B005000C00EFF30583002B1ED1CE
:10341000FFF74EFD002302930193224B00932A00F5
:103420002300FFF7B9FD061E23DD20BFFFF740FD97
:103430003100FFF7B7FE1C4B5B6A9C422DD81A4A3D
:10344000926AAA422CD29C4225D0012026E0164B3B
:103450005B6A994209D8144A926A824207D2994219
:1034600001D001201AE0002018E0002016E0012021
:1034700014E00D4B5B6A9C4209D80B4A926AAA423F
:1034800007D29C4201D0012008E0002006E0002085
:1034900004E0012002E0002000E0002004B070BD44
:1034A0000120FBE7312800100040054070B5EFF324
:1034B00005801038EFF3108C72B61A4B1B68002B86
:1034C000FBD0BFF35F8F01221300834016494B638B
:1034D00016490B60164909780C00C440224214D0EA
:1034E000114A546A8200134D5259944206D3820005
:1034F000114C125999430E4B197007E00A4A031DEB
:103500009B0099589950002200E00022BFF35F8F82
:10351000044B002119608CF31088002A00D09047DA
:1035200070BDC046280100D0004005403C700540F9
:10353000970B0120140B01202C48002010B501002E
:10354000024A0348FEF708FD10BDC046E0C3031061
:10355000820B012010B501000148FEF73FFD10BDB0
:10356000820B012000B583B00100044B00930323BC
:1035700000220348FEF709FD03B000BD04C4031098
:10358000820B0120044B5B6A034A906A1900536A5C
:103590009942F9D17047C04600400540084B5B6A2C
:1035A00001E0074B5B6A8B42FBD301E0044B5B6A93
:1035B0008B4203D1024B9B6A8342F7D37047C046CC
:1035C0000040054070B504000D00FFF7DBFF02006E
:1035D0000B0020002900801859418B4202D804D1E9
:1035E000824202D901204042C117002902DBFFF7C5
:1035F000D5FF70BD024B034A3F21034800F076FE21
:1036000094B2031090C40310E8B2031010B5002860
:1036100007DB064B9A6A054B9B6A9B1A8342FAD3D7
:1036200010BD0021FFF7CEFFFAE7C046004005407D
:1036300010B50A4B984207D843011B1A9B00181873
:10364000C000FFF7E3FF10BDFA2292000023002123
:1036500002F0F8FBFFF7B6FFF5E7C0469BC4200079
:1036600070B504000D00EFF3108672B61B4B1B689B
:10367000002BFBD0BFF35F8F002D1CD02000FEF786
:1036800083FD174B83420BD019002000FEF796FDF7
:1036900001212000FEF768FD0123A340114A1360B9
:1036A000A400114BE550BFF35F8F0C4B00221A6052
:1036B00086F3108870BDA2000B4B0021D15001226F
:1036C000A2400A490B7893430B7005492000FEF78E
:1036D000B9FE00212000FEF747FDE4E7280100D0F5
:1036E000AD340010386005402C480020970B0120B5
:1036F000F0B5DE4600B584B00400150001921E004E
:103700000293FFF73FFF03958E4202D84ED18542C8
:103710004CD9EFF3108B72B6274B1B68002BFBD0F4
:10372000BFF35F8F254A17780125A540EBB23B43D5
:103730001370234B5D63221D92000199D150A200AA
:103740002049029850501B6A2B4212D11C4B1B6C13
:103750002B4208D00020BFF35F8F174B00221A6066
:103760008BF3108823E0184B184AC521184800F045
:10377000BDFDFFF707FF8E4214D802D1039B8342A1
:1037800010D80E4B1B78BB420ED00D4B1D625D63F3
:103790001F2004400123A3400E4A1360074B1F70F3
:1037A0001E38D8E70020D6E70120D4E7012004B076
:1037B00080BCBB46F0BDC046280100D0970B01205D
:1037C00000400540140B012018C4031074C40310FA
:1037D0003CC4031080E200E0EFF3108C72B60B4B98
:1037E0001B68002BFBD0BFF35F8F01238340084A87
:1037F000136208490A789A430A70BFF35F8F034B3C
:1038000000221A608CF310887047C046280100D04F
:1038100000400540970B0120EFF3108C72B60B4B64
:103820001B68002BFBD0BFF35F8F01238340DAB20C
:103830000749087802430A70BFF35F8F034A0021EB
:1038400011608CF31088034A13607047280100D080
:10385000970B01203C60054010B500291ED0037B6A
:1038600099421BD84B005B18033B0468A446634491
:10387000002919D0002A1DD0914221D0002A25D03C
:10388000047BA24222D80468500080180338201814
:103890008170197800291FD11A7010BD104B114A80
:1038A0006821114800F022FD104B114A6F310E487B
:1038B00000F01CFD0F4B0E4A70210B4800F016FD66
:1038C0000D4B0B4A7121084800F010FD044B054ACE
:1038D0006821054800F00AFD41701A70DDE7C04616
:1038E000D4C003108CC50310F0C0031030C1031006
:1038F00078C503103CC1031048C1031070B5060021
:103900000D001400002914D0002A14D080687368B8
:103910009847002806D0220029003000FFF79CFFBE
:10392000280007E02A0021003000FFF795FF200063
:1039300000E0100070BD0800FCE7000010B5002397
:10394000437301338373037BC3730123027B9A4266
:1039500014D9002B0CD0027B934209D85A00D218FC
:10396000033A01688C4662440133DBB25370EDE7E1
:103970000B4B0C4A68210C4800F0B8FC002A09D017
:10398000924207D8016853009A18033A8A18002314
:10399000537010BD024B034A6821034800F0A6FC97
:1039A000D4C003108CC50310F0C0031010B5017310
:1039B00042608360FFF7C2FF10BDF8B505000E003E
:1039C00017001021012002F011FB04000321280040
:1039D00002F00CFB20603B00320029002000FFF7C2
:1039E000E5FF2000F8BD10B50400006802F03EFBC2
:1039F000200002F03BFB10BD70B50400081E00D192
:103A000070BD002934D0237B994231D84B005B181C
:103A1000033B2268944663445A78002AF0D02DD0A4
:103A2000237B9A422AD853009B18033B21688C467B
:103A300063445D7800215970002825D0237B98428B
:103A400022D843001B18033B21688C4663440021A5
:103A5000597001002000FFF751FF060029002000E7
:103A6000FFF7CAFF020031002000FFF747FFC7E75A
:103A7000084B094A6821094800F038FC054B064A02
:103A80006821064800F032FC024B034A68210348D3
:103A900000F02CFCD4C003108CC50310F0C0031040
:103AA00070B505000C00160000292FD034D0037B20
:103AB000994231D84B005B18033B0268944663443B
:103AC0005A78002A2ED19A78002A31D11978FFF736
:103AD00093FF0300002E0AD0EA7B002A2ED1AA7B96
:103AE000002A03D1EA7B002A3BD1AC73EC73002B94
:103AF0003DD1002C4FD02B7B9C424CD82B686100D1
:103B00000C19033C1C190023637070BD254B264A19
:103B10003821264800F0EAFB254B264A6821264832
:103B200000F0E4FB254B204A3A21204800F0DEFB60
:103B3000234B1D4A3B211D4800F0D8FB002A0AD028
:103B4000297B8A4207D851008A18033A29688C4693
:103B500062445470C3E7164B164A6821164800F0B9
:103B6000C5FB184B104A4221104800F0BFFB002B48
:103B70000BD02A7B934208D843001B18033B2A68CA
:103B80009446634400229A70B3E7094B094A6821BE
:103B9000094800F0ABFB064B064A6821064800F0D6
:103BA000A5FBC046A8C4031064C50310B0C403102D
:103BB000D4C003108CC50310F0C00310E0C4031080
:103BC00008C503100CC2031070B504000A00457B41
:103BD0002900FFF765FF6073280070BD70B5040011
:103BE000002967D0437B8B420ED0002911D0037B84
:103BF00099420ED84B005B18033B0268D0188378BB
:103C0000002B0CD1002056E00121FFF7DDFF012041
:103C100051E0294B294A6821294800F067FB002B15
:103C200020D0227B93421DD85A00D318033B226830
:103C3000D2182568EB5C8B421AD0002B1BD0227B5C
:103C4000934218D85A00D318033B2268D2185378ED
:103C50008B4216D0002BF0D11A4B1B4A6B211B480C
:103C600000F044FB144B154A6821154800F03EFB58
:103C70004378137007E0104B104A6821104800F099
:103C800035FB43785370002383704370012220007A
:103C9000FFF706FF0200617B814205D02000FFF79D
:103CA0002DFE6073012006E0094B074A7121074889
:103CB00000F01CFB002070BDD4C003108CC50310A5
:103CC000F0C003109CBE03104CC50310B0C4031019
:103CD0002CC5031070B504000D00062000F094F907
:103CE000C000290001F010FDC60908D00E4B9E420D
:103CF00017D87F23184001303500460800E0012521
:103D00006562A6622C348020800104430023236076
:103D1000062000F079F98000A901891901F0F4FC6E
:103D200070BD0026014DEBE7FEFF0000FFFF000025
:103D3000002909D00A22064B9C4660444342584160
:103D40004000044BC252704780225200F3E7C04645
:103D50000080FCBF480B012070B505000C00062058
:103D600000F052F9002829D0164B9D4227D080221E
:103D7000D203154B1A60154B1A60154B9B68110046
:103D80009943FAD100212800FFF7D2FF2100280033
:103D9000FFF7A0FF2C002C34E96A60224A406E2114
:103DA000114080225201224311600A4B2B63802371
:103DB0009B01234310221A600323AB6470BD802251
:103DC0001204D6E70080034000E0004000F000400D
:103DD00000C000400103000043001B189B00074A7D
:103DE00094466344C02292011343802212011A6058
:103DF0008000034B0022C2507047C0460080004044
:103E00006C4A0020F8B5DE4657464E464546E0B5BA
:103E100005000F0092460A9A93424ED31A0E91461D
:103E20001E020A9A00233000494601F0ABFC80468E
:103E30006C006419A4002F4B9C4664446368834261
:103E400000D260602B1FDBB29B46012B3BD9C02305
:103E50009B012343802212011A60AB00264A995825
:103E6000002905D0506901F04FFC01300138FDD127
:103E700053465A0123685A40E0231A4080235B01CD
:103E800023431A605A46012A28D980239B012343E1
:103E9000802212011A6043466360424600233000CC
:103EA000494601F06FFCAD00134B58510120F0BCA6
:103EB000BB46B246A946A046F8BD104B104A2D217C
:103EC000104800F013FA012FC1D1C0239B012343F6
:103ED00003221A60A368DB07FCD5C9E72168794093
:103EE00003220A401A60A2680123BB401342FAD0A1
:103EF000CBE7C046008000406C4A002098C5031004
:103F0000E8C50310ACC5031030B583B00C2000F039
:103F10001BF9FEF701F800280DD0002304E09900FA
:103F20002D4A2E4888500133092BF8D92A4B2C4AA8
:103F30005A6203B030BD2B4B00229A6700F08AF919
:103F4000294B01221A60274B5B6C012BFBD1274BBD
:103F500003221A60234B9B6B012BFBD1013300938F
:103F60000433234A0121234800F054F80523009329
:103F7000214A0121214800F04DF8214B00930022F5
:103F800002210420FFF73EFF1E4D00952B0000226A
:103F900001210520FFF736FF104C0094230000227A
:103FA00000210720FFF72EFF0094230000220021AC
:103FB0000820FFF727FF0A4B00932300002200216F
:103FC0000920FFF71FFF00952B000022002106208B
:103FD000FFF718FFADE7C0466C4A0020006CDC021A
:103FE0001BB70000008000403CB0004030B00040F3
:103FF000002F685900800240008C864700C00240B4
:10400000001BB700405973078000014BC058704730
:104010006C4A0020F0B5C64600B504000D0017003C
:1040200098460C2001F070FB0600394BFA18394B0A
:104030009A4241D843011B1A9901C91AC9000918AB
:104040008901380001F060FB0200103A98235B0000
:104050009A4237D84346013B062B39D8069B013B91
:10406000062B35D83F09B74238D343461E04069B7A
:104070001A0316432368002B36DB274B9C4244D09F
:1040800080225201254B1A60254B1A60254B9B68F4
:1040900011009943FAD12560A060231DC02292012E
:1040A0001A43212313602368002BFCDAE6600823FF
:1040B000136080BCB846F0BD1B4B1C4A11211C4844
:1040C00000F014F91B4B194A1921194800F00EF998
:1040D000194B164A1C21164800F008F9174B134AD1
:1040E0002321134800F002F922683F231340AB421A
:1040F000C3D1A3681B051B0D8342BED1E368EE222A
:10410000D2021340B342B8D1D3E780229201B9E77B
:1041100080E84BD380F8A93200C0024000E00040A4
:1041200000F0004000C00040F8C5031010C70310A5
:1041300058C603108CC60310A8C60310F4C603109B
:104140002D2343607047000080239B000343014AF6
:10415000D362704700800540024B1A68024B5A60D8
:104160007047C046D05D00200080054010B50200B9
:10417000164B8020C0051860154B164818600029A2
:104180000AD0154BE021C9041960002A09D1124B4D
:10419000802212061A6010BD0C4BE021C904196080
:1041A000F3E753019B1A9800801800010B4B18602D
:1041B00080235B04984202D3084B094A1A60FFF738
:1041C000CBFF054B8022D2051A60E4E700B0054022
:1041D00008200140FCFF010000A00540D05D002048
:1041E000FFFFFF0010B5034B034ADA61FFF7BEFF84
:1041F00010BDC046008005402131B76A10B50300EC
:1042000010000C4A8024E4051460002B0DD001221C
:104210001343094A094CD461094C5C401462516251
:1042200093620021FFF7A2FF10BD034B0022DA6169
:10423000F7E7C04600B0054000800540D3C007B096
:104240002D3FF84F024B9868431E9841C0B270470B
:1042500000800540064BAA2212011A602F22DA6064
:10426000044B054A1A60024B5B68002BFBDA70476F
:10427000004002400060024000B0FA0005490B68AF
:10428000054A1A40054B13430B60024B5B68002B39
:10429000FBDB704700400240FF0F00FF00E0D10051
:1042A00000BEFDE703000A4A1268002A08D0084A47
:1042B0001068C318074A9A4206D3054A136070472C
:1042C000034A05491160F2E701204042F7E7C04682
:1042D00098590020000004209C0B0120002070470A
:1042E00001204042704710B5FFF7DAFF10B582B0E9
:1042F0000C001900002A0CD0084B002A0BD00192A8
:10430000009323000200064802F0A4F80120FFF702
:10431000C7FF044BF1E7034AF1E7C0461CC703108F
:104320002CC703102C97071070B52B4B2B4A1A6023
:104330002B4B2C4A1A602C4B9A682A4B9343FAD188
:104340002A4C01E008CC9847294B9C42FAD3FFF74E
:10435000DBFD234B274A1A60234B9B68DB43DB01C1
:10436000FAD1254B40229A675A671A67DA66234CBE
:1043700009E0234B234A86212348FFF7B7FF20009B
:10438000FEF706FA0834214B9C4209D22368002B21
:10439000F5D0012BEDD12000FEF707FA0834F2E743
:1043A0001B4CA1681B4DC022280001F07DFEA560BA
:1043B000EFF30583002B00D000BEFDF72FFEFEF7C4
:1043C000A3F9FEF755FD144C01E008CC9847134BB8
:1043D0009C42FAD370BDC04600E00040BFCDFBFE5A
:1043E00000F00040FE7F3C0000C00040FC2D00209B
:1043F0000C2E0020FFFFFF0100F00140EC2D0020FB
:104400005CC70310ECC703107CC70310FC2D002011
:1044100000ED00E0000000200C2E00201C2E0020EB
:10442000D0B5041E18D0FFF7ADF806000F1E15DB3F
:104430000D4908684968361A8F410C4A002330003C
:10444000390001F087F920606160084A00233000DC
:10445000390001F07FF9A2600020D0BD044B054A6D
:104460003F210548FFF742FF902F002040420F00F8
:1044700094B20310D4C70310E8B203100FB400B510
:1044800083B0084801F0B6FF049B002B07D005A9B4
:104490000191180001F0BEFF034801F0ABFF0120BD
:1044A000FFF7FEFEB4C70310489A071010B5014885
:1044B000FFF7E4FFC4C703109A4200D28854704744
:1044C000704710B5002802D00B684968984710BDA6
:1044D0000100002007E083001B185B00501C0860EF
:1044E0001078C01830380A681378303BDBB2092BDB
:1044F000F1D97047F0B5DE4657464E464546E0B521
:1045000083B093461F000C9B9A460D9C0E9B9946C8
:104510000F9B9B0703D0B8460F00060022E00192D4
:10452000A34688464E46B9460700B44207D2551CFA
:104530004B4641462020B84701342A00F5E73D00AC
:104540004F465C46019B9B46B1464646B8463700FF
:104550002E0007E0013C551C5346185D43463900C8
:10456000B0472A00002CF5D135003E0047460F9B8E
:104570009B0707D4100003B0F0BCBB46B246A94667
:10458000A046F0BDB0464E46B9462F005D46531BCF
:10459000B342EFD2541C4B4641462020B84722007C
:1045A000F5E7F0B5CE46474680B585B094469846C7
:1045B0000C9D0D9C0EAB1B789946109A119B129E78
:1045C000B7071CD4002B0CD0F7070AD54F46002F95
:1045D00002D10C37374204D0013B02E030272F557F
:1045E0000134944201D21F2CF8D9F70707D59C4219
:1045F00005D21F2C03D830272F550134F5E7F706D5
:1046000015D5770505D4002C03D0944224D09C42C4
:1046100022D00F9A102A2BD00F9A102A30D00F9A3E
:10462000022A35D01F2C02D830222A5501341F2CE3
:1046300005D84A46002A31D02D222A550134039646
:1046400002930194009543466246FFF753FF05B07D
:10465000C0BCB946B046F0BD621E012C06D00F9F0B
:10466000102F01D01400D4E7023CD2E71400D0E7A9
:10467000B206D1D41F2CCFD878222A550134D1E7E5
:10468000B206CCD51F2CCAD858222A550134C9E706
:104690001F2CC7D860322A550134C3E7720703D5EF
:1046A0002B222A550134CAE73207C8D520222A55C1
:1046B0000134C4E7F0B5DE4657464E464546E0B500
:1046C00093B081468A46089209931CAB10CB1B78A5
:1046D0009B461E9D219B9846002C03D110234246E9
:1046E0009A4390468023DB0046461E4042461A42CB
:1046F00012D0002C22D000260EE03033D9B2771C25
:104700000AAB99552900200000F0FEFFAC4216D3F9
:104710001F2F14D83E0004002900200000F0F4FFF1
:10472000CBB2092BE9D94246920605D54121C918D9
:10473000C9B20A39C9B2E2E76121F8E72700434666
:104740000693209B05931F9B049303955B4602935E
:1047500001970AAB0093099B089A51464846FFF718
:1047600020FF13B0F0BCBB46B246A946A046F0BD40
:10477000F0B5DE4657464E464546E0B595B0089042
:1047800009910A920B931E9E1F9C20AB1B789B469F
:10479000229B9946239D269B9A463300234303D1AF
:1047A000103352469A4392468023DB0057461F40FF
:1047B00052461A4219D0330023432DD0002714E06B
:1047C0003033DAB27B1C98460CABDA554A462B00E4
:1047D0003000210000F0D6FFA5421FD819D0434673
:1047E0001F2B1BD8474606000C004A462B00300002
:1047F000210000F0C7FFD3B2092BE1D9524692063F
:1048000005D54122D218D2B20A3AD2B2DAE76122F1
:10481000F8E7B145E3D901E00023984653460693F3
:10482000259B0593249B04934B4603935B4602937D
:10483000434601930CAB00930B9B0A9A0999089885
:10484000FFF7AFFE15B0F0BCBB46B246A946A04686
:10485000F0BD0000F0B5DE4657464E464546E0B591
:1048600091B083468A460C9298461A9C08941B9DE8
:10487000099522002B002000290001F006FA0028EB
:1048800000D0E5E001225242D74B2000290001F080
:10489000F7F9002800D0DBE001225242D34B200080
:1048A000290001F0D7F9002800D0D1E00022002330
:1048B000089E3000099D290001F0CCF9002800D0A5
:1048C000DDE008980999069007918023DB001E9A85
:1048D0001A400D921E9A1A4201D106231C93069883
:1048E000079904000D000A000600024300D1D1E040
:1048F000080D4005400DBE4CA44660440A03120B4F
:10490000BC4B13431F0001F0D3F9BB4ABB4B01F072
:104910005AF9BB4ABB4B01F037F904000D000022E5
:10492000B94B3000390001F02AF9B84AB84B01F010
:104930004AF902000B002000290001F025F901F0DE
:10494000CFF9814601F0B4F904000D00B14AB24B31
:1049500001F039F90022B14B01F016F901F0C0F96C
:104960000600AF4AAF4B2000290001F02CF90400EB
:104970000D00300001F09CF9AB4AAC4B01F023F97B
:1049800002000B002000290001F0F9F804000D00DE
:1049900002000B0001F017F90A900B91A44BF318D9
:1049A00000261F0522002B002000290001F0ECF852
:1049B0000E900F9122002B0000208021C90501F0EC
:1049C000DEF804000D0000229A4B0A980B9901F0C2
:1049D000E0F80022984B01F0D7F802000B000A988B
:1049E0000B9901F0D6F80022944B01F0CDF80200AB
:1049F0000B000A980B9901F0CCF802000B00200084
:104A0000290001F0C1F802000B000E980F9901F087
:104A1000C0F80022774B01F0B7F832003B0001F0FC
:104A2000D2F806000F0004000D00069A079B01F063
:104A300027F9002830D001235B429C46E144002244
:104A40007D4B3000390001F0A4F804000D0023E094
:104A50001E9B04931D9B03931C9B0293089A099B26
:104A60000092019343460C9A5146584600F0FCF8D8
:104A700011B0F0BCBB46B246A946A046F0BD00232B
:104A8000002406930794069680231B069C466544E3
:104A900007951AE7002399464B466333C62B1ED869
:104AA00004261E9B1B0526D52B0023430FD0644AEA
:104AB000644B0698079901F0DBF8002879D00022B2
:104AC000614B0698079901F0C5F8002871D01C9B2E
:104AD0004B4506DD4A46981A431E1C9303E0052603
:104AE000DFE700231C938023DB001E9A1A431E92EB
:104AF0000026002399461D9B9E4264D29F1B0223E1
:104B00001E9A1A400A921E9A134202D0002E00D01A
:104B100000274B46002B07D022002B000698079950
:104B200001F037F8069007910022002308980999B0
:104B300001F090F8002848D1444B1E9A134004938A
:104B400003971C9B0293069B079C0093019443468A
:104B50000C9A5146584600F087F8002E00D187E79E
:104B60001E9B9B063DD54525441C434602005146ED
:104B70002800D8474B46DA179B1853400522059268
:104B8000013E0496002203920A3202924A46D00F56
:104B9000019000934346220051465846FFF78AFD94
:104BA0000A9B002B00D163E702005F460C9E1D9D0F
:104BB00054E01C9B002B9ED00D9B002B9BD01C9B7C
:104BC000013B1C9397E7002799E7069C079D22006D
:104BD000290080200006844661440B00069207935A
:104BE000AAE76525C0E7C046FFFFEF7FFFFFEFFFA5
:104BF00001FCFFFF0000F03FFB799F501344D33FBF
:104C0000B3C8608B288AC63F0000F83F61436F63DA
:104C1000A787D23F71A379094F930A400000E03F74
:104C20001655B5BBB16B0240EF39FAFE422EE63F96
:104C3000FF03000000002C4000002440000018404A
:104C40002D431CEBE2361A3F80842E41FFF7FFFF15
:104C5000541C434651462020B8472200931BAB42C8
:104C6000F6D3100004E7C046F0B5DE4657464E4680
:104C70004546E0B595B00690079193469946209F2A
:104C80001E9A1F9B1000190000F0FFFF002831D171
:104C900001225242BF4B1E981F9900F0DBFF0028F3
:104CA00037D101225242BC4B1E981F9900F0E8FFF9
:104CB00000283DD10022B94B1E981F9900F0E0FF5B
:104CC000002850D10022B64B1E981F9900F0C2FF59
:104CD000002848D1002200231E981F9900F0BAFF37
:104CE000002850D100239846229B5B0500D4B6E0F3
:104CF000002458E0229B0393219B029303230193FA
:104D0000A84B00934B465A4607990698FFF7F2FBCB
:104D10000EE1229B0393219B029304230193A24B58
:104D200000934B465A4607990698FFF7E3FBFFE0CE
:104D30000423229A1A4022990B4210D09B4B002A3E
:104D40000FD004222299039121990291019200939C
:104D50004B465A4607990698FFF7CCFBE8E0944B80
:104D6000EDE70322EEE7229B0493219B0393029736
:104D70001E9B1F9C009301944B465A460799069828
:104D8000FFF768FDD4E01E9A1F9B0020002100F071
:104D9000F6FE1E901F9101239846A5E70CAB30222A
:104DA0001A55013F01341F2C01D8092FF6D81E983F
:104DB0001F9900F095FF050000F07AFF02000B003C
:104DC0001E981F9900F0DBFEFA007A4B9B181A68B8
:104DD0005B680A920B9300F0F6FE0890099100F0D0
:104DE000A3FF060000F060FF02000B00089809997D
:104DF00000F0C5FE0890099100226F4B00F040FFC3
:104E000000282ED00136300000F04EFF02000B00CB
:104E10000A980B9900F024FF002801D001350026E4
:104E2000002F2CD1280000F043FF02000B001E9839
:104E30001F9900F0A4FE06000F0000225E4B00F058
:104E400009FF002846D100225B4B3000390000F0FA
:104E500017FF00283ED1EB073CD501353AE0062785
:104E600046E70022544B0898099900F0F3FE002809
:104E7000D6D1002E01D0F307D2D50136D0E7AA460D
:104E80001F2C11D8013F0A21300000F03DFC651CA9
:104E900030310CAB19550A21300000F035FC092ED9
:104EA0000ED906002C00EBE755461F2C0CD87B1EB4
:104EB000002F09D00CAA302111551F000134F4E74E
:104EC0002B0055461C00F0E71F2C03D80CAB2E22FC
:104ED0001A5501341F2C10D80A21280000F0ECFBD1
:104EE000661C30310CAB19550A21280000F0E4FB98
:104EF000051E01D03400EDE734000323229A13404D
:104F0000012B1CD01F2C06D84346002B32D00CABF3
:104F10002D221A550134229B0393219B0293019465
:104F20000CAB00934B465A4607990698FFF7E2FAF6
:104F300015B0F0BCBB46B246A946A046F0BD219BC9
:104F4000002B13D04346002B02D10C3313420FD059
:104F5000219B013B2193190003E00CAB30221A5531
:104F600001348C42CED21F2CF7D9CBE72199F8E738
:104F70002199F6E7229B5B0704D50CAB2B221A552F
:104F80000134C8E7229B1B07C5D50CAB20221A555C
:104F90000134C0E7FFFFEFFFFFFFEF7F65CDCD419D
:104FA00065CDCDC108C803100CC8031000C803109C
:104FB000FCC70310F8C903100000E03FF0B5DE465F
:104FC00057464E464546E0B593B082468B469046DE
:104FD0001193002900D1EBE200275546119B187868
:104FE000002800D1E7E2252809D07C1C43463A007E
:104FF0005946A847119B013311932700EEE701336F
:1050000011930024119A11780B00203BD8B210287C
:1050100003D88300D048C3589F460B00303BDBB217
:10502000092B2CD92A292FD000230A93119B1A78F7
:105030002E2A39D000239A46119A1378683BD9B2A8
:10504000122976D88B00C549CB589F4601231C43B3
:1050500001321192D6E702231C4301321192D1E7AB
:1050600004231C4301321192CCE708231C43013274
:105070001192C7E710231C4301321192C2E711A815
:10508000FFF726FA0A90D1E71C9B1A1D1C9218689C
:10509000002804DB0A90119B01331193C6E7022319
:1050A0001C4343420A93F6E78022D20014435A1C61
:1050B00011925A781300303BDBB2092B04D92A2A0B
:1050C00007D000239A46B7E711A8FFF701FA8246F6
:1050D000B2E71C9B1A1D1C921868002804DB82464C
:1050E000119B01331193A7E70020F8E780235B00B1
:1050F0002343511C119152786C2A01D01C0018E0F6
:10510000C0239B001C430131119112E080232343F3
:10511000511C11915278682A01D01C0009E0C0236B
:105120001C430131119104E080235B001C430132D8
:105130001192119B18780300253BDAB2532A00D94B
:105140002CE29300864AD3589F4680239B001C4341
:1051500001321192EDE780235B001C430132119272
:10516000E7E7782809D0582838D06F2838D0622847
:1051700038D010239C430A2600E01026582833D04C
:10518000692803D0642801D00C229443630501D51B
:105190000122944369282AD0642828D0A30500D589
:1051A0009FE0E30500D5B8E0630600D4CAE01C9A8E
:1051B000111D1C911168FF220A4005940A9B04935B
:1051C00053460393029600230193009243463A000C
:1051D00059462800FFF76EFA070027E01026CDE7B2
:1051E0000826CBE70226C9E720221443C8E7A30517
:1051F00020D4E30550D4630666D51C9A111D1C917A
:105200001168FF220A40D317D118594005940A9B10
:105210000493534603930296D20F019200914346A2
:105220003A0059462800FFF745FA0700119B013361
:105230001193D3E61C9BDA1D07218A431100083124
:105240001C91116853689C46DB170C930D930C9AC4
:105250000D9B100048400E90624653400F930E98ED
:105260000F990C9A0D9B801A99410E900F910894FA
:105270000A9B0793534606930496002305936346BF
:10528000DA0F02920090019143463A0059462800F5
:10529000FFF76EFA0700C9E71C9A111D1C911268EE
:1052A000D317D118594005940A9B0493534603938E
:1052B0000296D20F0192009143463A0059462800C7
:1052C000FFF7F8F90700B1E7230605D51C9A111D71
:1052D0001C910023D25E96E71C9A111D1C91126846
:1052E00091E71C9BDA1D07218A43110008311C91AC
:1052F00008940A9B0793534606930496002305934C
:105300000293136854680093019443463A00594647
:105310002800FFF72DFA070088E71C9A111D1C9141
:1053200005940A9B0493534603930296002301932A
:105330001368009343463A0059462800FFF7BAF92C
:10534000070073E723060DD51C9A111D1C911268E6
:105350001204120C31E7C04614C8031058C80310D9
:10536000A4C803101C9A111D1C91126825E7462839
:105370001AD01C9B0733072293431A0008321C9251
:1053800004940A9A0392524602925C681B68009346
:10539000019443463A0059462800FFF765FC070090
:1053A000119B0133119319E620231C43E1E7672881
:1053B00001D0472802D180231B011C43452801D07E
:1053C000472801D120231C431C9B0733072293430A
:1053D0001A0008321C9204940A9A039252460292CE
:1053E0005C681B680093019443463A0059462800C4
:1053F000FFF730FA0700119B01331193EEE502230A
:105400001A002240924623421FD001241C9B1A1DE1
:105410001C927A1C9146187843463A005946A84790
:105420005346002B16D1119B013311934F46D5E5FE
:10543000561C434659462020B847230032005C1CC6
:105440009D42F5D83D001700E0E701233A002F0008
:105450000A9DF4E74A46A9460A9D06E0571C4346C2
:1054600059462020C84734003A00661CA542F5D8AA
:105470004D469146D7E71C9B1A1D1C921B68994606
:105480005346002B00D1013B4E4601E0013613008C
:105490003278002A02D05A1E002BF7D14B46F21A5E
:1054A00010928023DB0026001E401C4203D0524590
:1054B00001D95346109302231A0022400B92234233
:1054C00005D03A0037004C46A946554620E03A0040
:1054D000109B5F46B3462E0006E0551C434639003C
:1054E0002020B04723002A005C1C0A999942F4D876
:1054F00035005E46BB46109437004C46A9465546DB
:1055000006E01D000134561C43465946C847320088
:105510002078002804D0002FF4D06B1E002DF0D18D
:1055200017004D460B9B002B03D1119B01331193A8
:1055300054E50A9F109B06E0561C4346594620201E
:10554000A847230032005C1C9F42F5D81700ECE707
:1055500021231C431C9B1A1D1C921B68009305945D
:1055600008230493534603931023029300230193CB
:1055700043463A0059462800FFF79CF80700119B64
:10558000013311932AE57C1C43463A0059462520F5
:10559000A847119B0133119327001FE57C1C43464C
:1055A0003A005946A847119B01331193270015E58E
:1055B0000A4B9A4610E5AA46474502D343465A1E6F
:1055C00000E03A00434659460020D047380013B067
:1055D000F0BCBB46B246A946A046F0BDC14400108F
:1055E0000EB410B585B0010007AC08CC03940122BD
:1055F000009452420348FFF7E1FC05B010BC08BC20
:1056000003B01847B944001000B583B000931300ED
:105610000A0001000248FFF7D1FC03B000BDC046FC
:10562000B944001000B585B00290039101210093A8
:1056300013004A4202A90248FFF7C0FC05B000BDB2
:10564000C344001001480421014B184720230020C7
:1056500081560010014B9B68184700002023002052
:1056600010B5010018231B8814221088984710BD1C
:1056700010B5010018231B8816221088984710BD0A
:10568000F0B5C64600B507000E0000250123984678
:1056900000E00135B5420AD2AC003C192068FFF7A2
:1056A000DFFF20600028F4D100239846F1E7404650
:1056B00080BCB846F0BD0000124A936F9B0815D21B
:1056C0009066D166002905D0FFE7FFE7FFE7516F3D
:1056D000106F704704B580210906C2175140002899
:1056E00000D0C84335F034FC002104BDF0B5146E81
:1056F000556E576F166FFFF7E3FF146655665767D1
:105700001667F0BD000000D0114A936F9B0813D2BA
:1057100010665166002905D0FFE7FFE7FFE7516FEC
:10572000106F704704B5002801D00020C04335F049
:105730000FFC002104BDC046F0B5146E556E576FC6
:10574000166FFFF7E5FF1466556657671667F0BDDD
:10575000000000D094464A4A926F9208624601D2F5
:1057600028E0C046F0B5464E346E756E776F366FE2
:1057700000F020F89446424A14665566576716674B
:105780006246F0BD94463E4A926F9208624601D24C
:1057900054E0C046F0B53A4E346E756E776F366F92
:1057A00000F04CF89446364A1466556657671667FB
:1057B0006246F0BD002B24DB11D000293EDA00B593
:1057C000C943404200D1013100F038F8C94340429A
:1057D00000D10131DB43524200D1013300BD002A28
:1057E000EBD1002801D1002905D00020C90FC9073D
:1057F00001D1C043410800B535F072FB00220023FF
:1058000000BD00B500290ADBDB43524200D1013361
:1058100000F014F8C943404200D1013100BDC94332
:10582000404200D10131DB43524200D1013300F04C
:1058300005F8DB43524200D1013300BD002923D1DA
:10584000002B18D1002A0CD0BC460D4F38667A6662
:1058500000210023FFE7FFE7FFE77A6F386F674615
:105860007047002801D00748010000B535F038FB2B
:105870000022002300BD02000B0000200021704721
:10588000000000D0FFFFFFFF002B00D0BFE0130C93
:1058900028D1002AE7D080B4114F39667A66FFE735
:1058A000FFE730B4040C7B6F396F1B0423433B6666
:1058B0007A66FFE7FFE7FFE7C04684B27B6F3D6F84
:1058C0001B0423433B667A66FFE7FFE7C0460023DD
:1058D0002C042D0C7A6F386F00196941B0BC7047E9
:1058E000000000D0F0B594460025140E01D112023C
:1058F0000835140F01D112010435940F01D1920023
:105900000235D40F01D152000135D40B0134254F9B
:105910007C66254C3C660E0C93B2FFE7FFE7FFE781
:105920003C6F6643360C7703BE467343DF0B5B0464
:10593000C01AB941130C7343DB18C91ACE08664369
:10594000360CB64493B273431F0F1B01C01AB94102
:10595000130C73431F0B1B05C01AB941860D8F0230
:105960003E436643360C092D24DB520A7243801AEB
:105970007703460A6643360C16235B1BDE40DF4086
:10598000BF1964466643821B704604350633010026
:10599000D940A840C01900D30131A24206D2002349
:1059A000F0BD0000000000D0FFFFFFFF121B013020
:1059B000F3D3F1E709277F1BFE406446A2B272438E
:1059C000801A00D20139220C7243130C1204821A7D
:1059D00099410B007046043513370100F940A84087
:1059E000801900D30131002B02D1A2420AD2F0BDAE
:1059F000013000D30131121BFAD2013BF8D1A2428F
:105A000000D2F0BD013000D30131121BF7E7F0B531
:105A10001C0C00D080E00CB400251C0A04D11B0231
:105A2000160E3343120208351C0B04D11B01160F4E
:105A30003343120104359C0B04D19B00960F334372
:105A400092000235DC0B02D192185B4101351C003B
:105A5000971864410134464F7C66464C3C660E0CF8
:105A6000FFE7FFE7FFE7C0463C6F6643360C77036E
:105A7000BE4697B27743C01B00D20139C01B00D28B
:105A800001399FB27743C91BC91B170C77437E04AA
:105A9000FF0B801BB941CE086643360C0C2D33DB5F
:105AA000B644120B1F053A431B0B97B27743C01B3A
:105AB00000D201399FB27743C91B170C77433E04CC
:105AC0003F0C801BB941860D8F023E436643292758
:105AD0007F1BFE400C3D7746AF40BF1930BCA2B2E1
